:1000000000000320D1010000653A0000293A0000F9
:10001000293A0000293A0000293A0000293A000054
:10002000293A0000293A0000293A0000653A000008
:10003000653A0000293A0000653A0000193A0000CC
:10004000653A0000653A0000653A0000653A000034
:10005000653A0000653A0000653A0000653A000024
:10006000653A0000653A0000653A0000653A000014
:10007000653A0000653A0000653A0000653A000004
:10008000653A0000653A0000653A0000653A0000F4
:10009000653A0000653A0000653A0000653A0000E4
:1000A000653A0000653A0000653A0000653A0000D4
:1000B000653A0000653A0000653A0000A55B000063
:1000C000653A000029630000653A0000B16800004D
:1000D000653A0000DD6E0000653A0000653A0000F8
:1000E000653A0000653A0000653A0000653A000094
:1000F000653A0000653A0000653A0000653A000084
:100100000D510000255100003D51000055510000E7
:10011000653A0000F9420000653A0000653A0000C7
:10012000653A0000653A0000653A0000653A000053
:10013000653A0000653A0000653A0000653A000043
:10014000653A0000653A00002D740000653A000031
:10015000653A0000653A0000653A0000653A000023
:10016000653A0000653A0000653A0000653A000013
:10017000653A0000653A0000653A0000653A000003
:10018000653A0000653A0000653A0000653A0000F3
:10019000653A0000653A00008D7A0000653A00007B
:1001A000653A0000653A0000653A0000653A0000D3
:1001B000653A0000653A0000653A0000653A0000C3
:1001C000653A0000653A0000653A0000653A0000B3
:1001D0005C4B4CF2205210B51A804DF628121A8052
:1001E00000BF00BF03F042FC574B4FF030621A6073
:1001F000564A9A60564ADA60564B4FF470021A60BB
:10020000554B564A1A60564B1A6812F4807204D144
:1002100054490A604FF4A8521A60534B1A781107D8
:1002200003D51A7842F008021A70504B504C5148CE
:10023000AA221A70504A00239918A14203D21958D1
:1002400099500433F8E74D4B4D4900228B4202D2BE
:1002500043F8042BFAE74B484B4900235A581A50ED
:100260000433B3F5E87FF9D1484B494A802103F8BC
:10027000011B9342FBD1474B424A1A60464B8A22EC
:100280001A70A3F5805324225A70A0221A709A790A
:100290009207FCD59A79D406FCD4404B9A7902F0A7
:1002A0000C02082AFAD13E4B60221A7002331A78E7
:1002B000802AFCD1394B01221A715D225A719A7938
:1002C0009006FCD59979354A4906FBD5354B364918
:1002D00019600021596020231370937903F00C03F7
:1002E0000C2BFAD1314B324A1A60324B324A1A6027
:1002F00000225A60072243F8042C304AC3F80C2D20
:1003000062B603F07FFE174B1B68DA0705D52C4851
:1003100003F018FC2B4B2C4A1A602C4B1B785B0605
:1003200009D5284C284A2368934204D1244803F075
:1003300009FC002323600BF081FB03F09DFB05F01B
:1003400067F8FEE70E20054030800440823F04003D
:100350000100002B88ED00E0002008E0030000858C
:1003600010D0034014D0034002D0074000E0074003
:100370008C10FF1FB0D500006007FF1F8C10FF1FFF
:10038000F0F6FF1F0002FF1F0000000000E400E085
:1003900064E400E008ED00E0005006400040064044
:1003A00001E007404480044000000602048004404D
:1003B000C010070014E000E01FBF02000000202072
:1003C000BA6B39591CE00340A5C3945A00F00740AA
:1003D000FFFFFFFFFFFFFFFFFFFFFFFFFFFFFFFF2D
:1003E000FFFFFFFFFFFFFFFFFFFFFFFFFFFFFFFF1D
:1003F000FFFFFFFFFFFFFFFFFFFFFFFFFFFFFFFF0D
:10040000FFFFFFFFFFFFFFFFFFFFFFFFDEF9FFFF23
:1004100010B5054C237833B9044B13B10448AFF33E
:1004200000800123237010BD8C10FF1F000000000E
:10043000B0D5000008B5064B1BB106480649AFF31E
:1004400000800648036813B1054B03B1984708BD07
:1004500000000000B0D500009010FF1F8C10FF1F9F
:1004600000000000FFFFFFFF2DE9F843814680ED0B
:10047000000A1B4B83601B4BC360102004F0D0FFAD
:1004800004469FED191A99ED000AF0EE410A00F0BA
:1004900095F9C9F8044009F1200701260EA5D5E910
:1004A000004540F2014830460AF01AFF41EC100BBB
:1004B00008F076F851EC100B22462B460BF0A0F812
:1004C0000BF056FA47F8040B01364645EBD1484687
:1004D000BDE8F883AFF30080000000C0D3B91B4033
:1004E00000409C4600E02B4600002043AFF3008014
:1004F00038B5054644682CB1204600F021F9204665
:1005000004F092FF284638BD0369C360704700BFFE
:10051000DFED077A20EE270AB6EE007A60EE077A62
:100520009FED047A77EE877AC0ED037A704700BFBB
:1005300000A00C4600E02B46DFED067A20EE270AED
:100540009FED057A30EE070A70EE277AC0ED027A49
:10055000704700BF0080BB4400E02B4670B50C46DE
:100560003F2930D81A4B5E5CFF2E2ED003F010FDD1
:100570000546184B03EBC404636800221A60164B4F
:100580001A6842F020021A60144A154B1A603607A6
:1005900046F4800604331E604FF41673013B7FF46B
:1005A000FDAF0F4C236813F0080F04D003F0F0FCEC
:1005B000401B4F28F6D93C23013B7FF4FDAF094B8C
:1005C000186880B270BD002070BD002070BD00BFF3
:1005D00078CB000048CE0000388004408449830076
:1005E000005004400450044038B5044645680021DA
:1005F000FFF7B4FF07EE900AB8EEE70A284600F0CE
:10060000F5F884ED040AD4ED037AB4EEE70AF1EECE
:1006100010FA48BFB0EE670A94ED027AB4EEC70A4A
:10062000F1EE10FAC8BFB0EE470A30EE670ADFED10
:100630000C6A20EE260A37EE677AC0EE077AF7EEEC
:10064000006A77EEA67AC4ED057AFDEEE77A17EE3A
:10065000902A04EB820393ED070A84ED060A38BD65
:1006600000807F4400F58052002313800246002161
:1006700042F8041B0133B3F5806FF9D1704700BF16
:10068000704700BF00F580510A88531C9BB20B8055
:1006900012B200EB820282ED000A1BB2B3F5806F4A
:1006A00001D100230B80704700F580531B88591A35
:1006B00089B211F4004F09B218BF01F5806100EB57
:1006C000810090ED000A7047F8B52DED048B0646C9
:1006D000B0EE409A10EE100A0AF014FE41EC180B2E
:1006E00041EC100B07F0B8FD51EC100B0BF0F8F8D3
:1006F00087B2B0EE480AF0EE680A07F015FD55EC37
:10070000104B39B207EE901AB8EEE78A39EE488AF4
:100710003046FFF7C9FFF7EE008A78EEC88A68EE28
:10072000808A204629460BF0DBF801B23046FFF7FD
:10073000BBFF20EE080A38EE800ABDEC048BF8BD42
:10074000704700BF10B50446D0ED007A20EE270AAE
:100750009FED0A7AC0EE077ABFEE007A87EE277A1D
:1007600017EE100A0AF0CEFD41EC100B07F094FED4
:1007700051EC100B0BF0FCF8606010BD00007A44E7
:1007800010B50446D0ED007A20EE270A9FED0A7AD4
:10079000C0EE077ABFEE007A87EE277A17EE100ACE
:1007A0000AF0B0FD41EC100B07F076FE51EC100B97
:1007B0000BF0DEF8A06010BD00007A4410B52DEDFE
:1007C000028B0446B0EE418A80ED000A0023C3602C
:1007D000B0EE600AFFF7B6FF2046B0EE480AFFF71A
:1007E000CFFF2046BDEC028B10BD00BFB0EEC00AAB
:1007F000D0ED037AB4EEE70AF1EE10FA77EEC07AA4
:10080000CCBF90ED017A90ED027A67EE877A37EEF1
:10081000800A80ED030A90ED030AF1EE007A20EEE3
:10082000270A7047704700BF80ED090A704700BF74
:1008300080ED0A0A704700BF70B52DED028B0646A9
:10084000F0EE408AB0EE418A837D13B1012B07D0D0
:1008500031E070EEC08A88EE818A80ED078A2AE056
:1008600010EE900A0AF04EFD41EC100B07F098FED6
:1008700055EC104B18EE900A0AF044FD41EC100BB9
:1008800007F08EFE2046294653EC102B0AF0DAFBC7
:1008900004460D4618EE100A0AF034FD02460B46D7
:1008A000204629460AF0ACFE0022044B0AF0CCFB9D
:1008B0000BF05EF8B061BDEC028B70BD0000F03F44
:1008C00008B5034690ED081A20EE010ADFED077A1D
:1008D00080EE271A80ED011A427D012A05D193EDA1
:1008E000030AF7EE000AFFF7A7FF08BD00007A44ED
:1008F00008B5034690ED081A20EE010ADFED077AED
:1009000080EE271A80ED021A427D032A05D193ED6D
:10091000030AF7EE000AFFF78FFF08BD00007A44D4
:1009200008B5034651B10122427593ED030AF7EE73
:10093000000A93ED011AFFF77FFF08BD03224275FD
:1009400093ED030ADFED030A93ED021AFFF774FF3C
:1009500008BD00BF0AD7233C08B50175437D022BB3
:1009600002D10021FFF7DCFF08BD00BF08B590F8F9
:100970002C30E3B1437D53B9D0ED097AF4EEC07A5F
:10098000F1EE10FA13D50121FFF7CAFF08BD012BC4
:100990000DD9D0ED0A7AB4EEE70AF1EE10FA06D5D9
:1009A000027D22B1022B02D00021FFF7B9FF08BD62
:1009B00008B519B10121FFF7B3FF08BD0021FFF70A
:1009C000AFFF08BD10B50446002303700022C260CB
:1009D00003754375837580ED080A4FF07C534362BD
:1009E000094B8362012380F82C3060EE200ADFED92
:1009F000077A80EEA70A80ED010AB0EE410AFFF700
:100A000077FF204610BD00BF9A99993E00007A44B6
:100A1000D0ED037AC0ED047A837D13B1012B07D0AA
:100A2000704790ED077A77EE877AC0ED037A7047CA
:100A300090ED067A67EE877AC0ED037A704700BFC3
:100A400010B50446437D032B44D8DFE803F0410290
:100A50003D1B00230370FFF7DBFF94ED037AF7EEF5
:100A6000007AB4EEE77AF1EE10FA33DDC4ED037AE2
:100A7000237D13B1022363752CE020460021FFF78C
:100A80004FFF27E0FFF7C4FF94ED037ADFED137A01
:100A9000B4EEE77AF1EE10FA03D8C4ED037A00233E
:100AA000637594ED037AF6EE007AB4EEE77AF1EE30
:100AB00010FA0FD594ED047AB4EEE77AF1EE10FA5D
:100AC00008DD0123237005E04FF07E53C36001E091
:100AD0000023C36094ED030A10BD00BF0AD7233C76
:100AE000704700BF46F20403C1547047DFED0B7A34
:100AF00020EE270AB6EE007A70EE077AFDEEE77A6E
:100B000017EE903A46F22002835046F21C028350C0
:100B1000002246F22403C250704700BF0000804FFD
:100B200008B500F5C04282ED030A00F5C042D2EDDF
:100B3000057A60EE277A00F5C04292ED047A67EEFE
:100B4000877A30EE270A00F5C04282ED020A00F5EE
:100B5000C043D3ED0B7A80EE270AFFF7C7FF08BD2D
:100B600008B500F5C04282ED040A00F5C042D2ED9E
:100B7000037A00F5C04292ED057A27EE877A20EEDF
:100B8000070A37EE800A00F5C04282ED020A00F53E
:100B9000C043D3ED0B7A80EE270AFFF7A7FF08BD0D
:100BA00008B500F5C04282ED050A00F5C042D2ED5D
:100BB000037A20EE270A00F5C04292ED047A20EE77
:100BC000070A37EE800A00F5C04282ED020A00F5FE
:100BD000C043D3ED0B7A80EE270AFFF787FF08BDED
:100BE00010B446F21803C258510D46F20403C35C18
:100BF000012B02D0022B07D00DE001F5006100EBC4
:100C000081014B6803600AE001F5805100EB81012E
:100C10004B68036003E000EB81014B68036046F220
:100C20002403C358002B07DD46F21C01445846F24A
:100C3000200141588C4209DB002B0CDA46F21C01E2
:100C4000445846F2200141588C4204DD46F21C0112
:100C500044582344435046F21C03C3581A4446F2F6
:100C60001803C25090ED000A5DF8044B704700BFB6
:100C7000F8B52DED068B071D00F50056043600F57E
:100C80008045043500249FED1FAADFED1F8ADFEDAC
:100C90001F9ABFEE009AB7EE008A07EE104AF8EEF0
:100CA000C77A67EE8A7A67EEA87A17EE900A0AF09A
:100CB00029FB41EC100B07F097FB51EC100B0AF0ED
:100CC00057FE07EE900A47F8040BF4EEE97AF1EECE
:100CD00010FA54BFF0EE487AF0EE497AE6EC017A69
:100CE000630007EE903AF8EEE77A67EEA87A77EEBF
:100CF000C87AE5EC017A0134B4F5006FCDD1BDECD2
:100D0000068BF8BDDB0FC9400000003A0000000070
:100D100038B52DED028B0446B0EE608A002546F210
:100D20000403C55400F5C04300221A6100F5C04316
:100D30005A6100F5C04383ED0B0AFFF799FF204687
:100D4000B0EE480AFFF7ECFE46F21803E550636880
:100D500023602046BDEC028B38BD00BF70B52DED81
:100D6000028B52480021FFF73FFC514B83ED000AF4
:100D7000504B18680E214FF0FF3202F06BF8C0F5AF
:100D800000704D4B186000EE100ABAEEEB0A4B4BA8
:100D9000D3ED007A20EE270A494B83ED000A49483B
:100DA000FFF724FD484B83ED000A484B1B7813B135
:100DB0004748FFF7DBFD4648FFF742FE454D85ED0E
:100DC000000A454E3E4C304694ED000AFFF75AFCAF
:100DD0003046424B93ED000AFFF776FC84ED000AA3
:100DE0003F48FFF7FDFE3F4E86ED000A3E4B93ED78
:100DF000007AD4ED007A20EE070A20EE270AB7EE3B
:100E0000008A38EE477A67EE877A30EE270A374B4A
:100E1000D3ED007A95ED007A27EE877A20EE077AF7
:100E200078EE677A20EE270A37EE000A84ED000A92
:100E30002F48FFF7D5FE95ED007A20EE070A2D4BDF
:100E4000D3ED006A96ED007A26EE877A20EE077AD7
:100E500078EE666A20EE260A37EE007A264B83ED9E
:100E6000007A264BD3ED006AD4ED007A66EEA77ABD
:100E700078EE666A27EE267A77EE877A204BC3ED06
:100E8000007A77EE887A9FED1F7A67EE877AFDEE1B
:100E9000E77A17EE901A89B21B4B1980422009B2EB
:100EA00002F0D0FEBDEC028B70BD00BFD010FF1F62
:100EB0005C91FF1F3C91FF1F2C81FF1F6807FF1FE4
:100EC000B010FF1F6C91FF1FB891FF1F7507FF1F28
:100ED0008891FF1F8091FF1F3881FF1F7807FF1F38
:100EE000FC20FF1F3481FF1FF091FF1F7007FF1FC1
:100EF000F491FF1F6091FF1F2CF2FF1FF420FF1FD2
:100F000028F2FF1F000000456891FF1F10B504463E
:100F100004F0E6F8204610BD10B535484FF46131B5
:100F200001F056FF0E20002102F04CFE0C2002F0D2
:100F300019FE4220012102F045FE2420002102F08A
:100F400041FE2520002102F03DFE1120002102F08B
:100F500039FE0D20012102F035FE0320012102F0AF
:100F600031FE0420012102F02DFE1E20012102F09D
:100F700029FE1D20012102F025FE0A20012102F098
:100F800021FE0220012102F01DFE0220002102F0BC
:100F9000F5FD1848184941F64B5204F057F8174828
:100FA000174943F6972204F051F8182004F038FA54
:100FB0000446012101F084F82378032B03D1032296
:100FC000104B1A7310BD0F4B996801315868890096
:100FD0000BF06CF818B903220A4B1A7310BD094BB9
:100FE0005860996840F821409A6801329A6010BDB3
:100FF000DC91FF1FA810FF1F5D0D0000EC20FF1FFC
:1010000021200000BC91FF1F10B52DED028B0F4B6E
:10101000186824214FF0FF3201F01CFF80B20C4B06
:10102000188000B208EE100ABAEECB8A094C2046AE
:10103000B0EE480AFFF76CFA20469FED070A38EE3B
:10104000000AFFF779FABDEC028B10BD3C91FF1F3F
:101050007C91FF1FD010FF1FCDCC4C3E10B52DED65
:10106000028B154B186825214FF0FF3201F0F2FE7C
:1010700080B2124B188000B200EE100ABAEECB0A12
:1010800030EE000AB6EE008A30EE488ADFED0C7AC8
:10109000B4EEE78AF1EE10FA58BFB0EE678A094C59
:1010A0002046FFF7C1FB2046B0EE480AFFF7C0FB21
:1010B000BDEC028B10BD00BF3C91FF1FF820FF1F4D
:1010C000CDCC4C3E8891FF1F08B50D4B18681121FF
:1010D0004FF0FF3201F0BEFE80B20A4B188000B222
:1010E00007EE900AFAEECB7A9FED077A67EE877AE1
:1010F0009FED067AC7EE877A054BC3ED007A08BDEF
:101100003C91FF1F8491FF1F0000FA450000F04250
:101110007807FF1F08B50122034B1A70034800210E
:10112000FFF746FC08BD00BFD891FF1F8891FF1F45
:1011300010B50446002101F015F948B12046002100
:1011400001F0AAF8011C18BF0121022002F016FDCF
:1011500010BD00BFFFFFFFFF10B50446002101F0E6
:1011600001F9B0B32046012101F0FCF888B3204614
:10117000012101F091F820B919480021FFF718FC6E
:1011800010BD2046002101F087F8453807EE900A8F
:10119000B8EEE77AF2EE087AC7EE277A17EE900AF1
:1011A0000AF0B0F89FED0C0B41EC110B07F072FA4E
:1011B00051EC100B00220B4B0AF0F8F80AF0D8FBA8
:1011C00000EE100A0848FFF7ABFC05480121FFF7C5
:1011D000EFFB10BDAFF300800000000000000040F6
:1011E0008891FF1F00807B40F491FF1FAFF30080C8
:1011F0002DE9F04100AF0446002101F093F80546C7
:101200002046002101F0BAF8002830D0072D1ADD61
:101210002DE018480021FFF765FC12E03046164922
:101220000BF044F920B913480121FFF75BFC08E0FB
:10123000304612490BF03AF918B90E480221FFF76F
:1012400051FCC54613E0E846EB1D23F00703ADEB68
:10125000030D6E46204600216A462B4601F03EF8FB
:10126000684607490BF022F90028D7D1D1E7BD46DF
:10127000BDE8F081FC20FF1FA0CB0000A8CB000040
:10128000ACCB000010B50446002101F071F830B17C
:101290002046002101F010F80348FFF741FC00222E
:1012A000024B1A7010BD00BFFC20FF1F7407FF1F08
:1012B00010B50446002101F05BF830B12046002152
:1012C00000F0FAFF0148FFF76BFC10BDFC20FF1F88
:1012D00010B50446002101F04BF830B12046002142
:1012E00000F0EAFF0148FFF7EBFA10BD8891FF1FFD
:1012F00010B50446002101F03BF830B12046002132
:1013000000F0DAFF0148FFF7F3FA10BD8891FF1FE4
:1013100010B50446002101F025F850B12046002107
:1013200000F0BAFF012814BF002101210148FFF796
:1013300013FB10BD8891FF1F10B50446002101F07A
:1013400011F848B12046002100F0A6FFD0F10100BD
:1013500038BF0020014B187010BD00BF7507FF1F7C
:1013600010B50446002100F0FDFF50B120460021D9
:1013700000F092FF012814BF002101210148FFF76E
:1013800017FB10BD8891FF1F10B50446002100F027
:10139000EFFF30B12046002100F08EFF0148FFF73B
:1013A00043FA10BD8891FF1F10B50446002100F0DC
:1013B000DFFF30B12046002100F07EFF0148FFF73B
:1013C00037FA10BD8891FF1F2DE9F04100AF0446A8
:1013D000002100F0A7FF05462046002100F0CEFFC7
:1013E000002830D0072D1ADD2DE018480021FFF726
:1013F00079FB12E0304616490BF058F820B9134833
:101400000121FFF76FFB08E0304612490BF04EF860
:1014100018B90E480221FFF765FBC54613E0E84600
:10142000EB1D23F00703ADEB030D6E4620460021B4
:101430006A462B4600F052FF684607490BF036F823
:101440000028D7D1D1E7BD46BDE8F081F491FF1F58
:10145000A0CB0000A8CB0000ACCB000010B5044628
:10146000002100F085FF30B12046002100F024FF6C
:101470000148FFF755FB10BDF491FF1F10B504465E
:10148000002100F075FF30B12046002100F014FF6C
:101490000148FFF785FB10BDF491FF1F10B504460E
:1014A000002100F065FF30B12046002100F004FF6C
:1014B000014B83ED000A10BD6091FF1F10B504467B
:1014C000002100F055FF30B12046002100F0F4FE6D
:1014D000034B83ED000A0022024B1A7010BD00BFBF
:1014E0006807FF1F6C07FF1F10B50446002100F0BE
:1014F0003FFF30B12046002100F0DEFE034B83EDBC
:10150000000A0022024B1A7010BD00BF7807FF1FAF
:101510007C07FF1F10B50446002100F029FF30B101
:101520002046002100F0C8FE014B83ED000A10BDEB
:10153000F091FF1F10B50446002100F019FF30B1F3
:101540002046002100F0B8FE014B83ED000A10BDDB
:101550007007FF1F10B50446002100F009FF30B1ED
:101560002046002100F0A8FE014B83ED000A10BDCB
:10157000F420FF1F10B50446002100F0F3FE48B12F
:101580002046002100F088FE012814BF0020012021
:10159000014B187010BD00BF6D07FF1FFFFFFFFF5D
:1015A0002DE9F84300AF0446002100F0E7FE0028D3
:1015B00000F0C3812046012100F0D4FE002800F095
:1015C000BC812046022100F0D9FE002800F0B58140
:1015D0002046032100F0CCFE002800F0AE8120461A
:1015E000042100F0C5FE002800F0A781E94620464E
:1015F000002100F097FE0346C21D22F00702ADEB6A
:10160000020D6D46204600216A4600F067FE204626
:10161000012100F041FE80462046022100F082FEBA
:101620000346C21D22F00702ADEB020D6E462046B6
:1016300002216A4600F052FE2046032100F03CFEE3
:10164000974B83ED000A2046042100F035FE954BB0
:1016500083ED000A0122944B1A70944B9B68002B77
:101660001CDD9248002100F0CDFD044620B100F0C1
:101670008BFD204603F0D8FE182003F0D1FE04466F
:10168000294600F0FBFC2378032B03D10322874B70
:101690001A732AE0854B5B681C6026E013BB182098
:1016A00003F0BEFE0446294600F0E8FC2378032B35
:1016B00003D103227D4B1A7317E07C4B9A68511CAF
:1016C000586889000AF0F2FC18B90322774B1A73A4
:1016D0000BE0764B5860996840F821409A680132D7
:1016E0009A6002E00422714B1A73704B9B68012BC5
:1016F0001CDD6E48012100F085FD044620B100F09C
:1017000043FD204603F090FE182003F089FE0446B6
:10171000414600F0D5FC2378032B03D10322634B11
:101720001A732BE0614B5B685C6027E0012B22D1D0
:10173000182003F075FE0446414600F0C1FC2378F2
:10174000032B03D10322594B1A7317E0574B9A68A6
:10175000511C586889000AF0A9FC18B90322534BA0
:101760001A730BE0514B5860996840F821409A6811
:1017700001329A6002E004224C4B1A734B4B9B6877
:10178000022B1CDD4948022100F03CFD044620B13B
:1017900000F0FAFC204603F047FE182003F040FE5C
:1017A0000446314600F06AFC2378032B03D1032260
:1017B0003E4B1A732BE03D4B5B689C6027E0022B8D
:1017C00022D1182003F02CFE0446314600F056FCCE
:1017D0002378032B03D10322344B1A7317E0334BC6
:1017E0009A68511C586889000AF060FC18B90322F5
:1017F0002E4B1A730BE02D4B5860996840F821402E
:101800009A6801329A6002E00422284B1A73274B2F
:101810009B68032B1DDD2548032100F0F3FC0446E3
:1018200020B100F0B1FC204603F0FEFD182003F0CB
:10183000F7FD04469FED1E0A00F04AFC2378032BB7
:1018400003D10322194B1A7337E0184B5B68DC6035
:1018500033E0032B2ED1182003F0E2FD04469FED68
:10186000140A00F035FC2378032B03D103220F4B1D
:101870001A7322E00D4B9A68511C586889000AF0CF
:1018800015FC18B90322094B1A7316E0074B586070
:10189000996840F821409A6801329A600DE000BFD3
:1018A0003081FF1F6407FF1F24F2FF1F4091FF1FBD
:1018B000000000000422244B1A73244C23685B6848
:1018C000204623491022984728460AF05BFF02462B
:1018D00023685B6820462946984723681D4D5B684E
:1018E00020462946022298472046414603F08AFCBA
:1018F00023685B68204629460222984730460AF052
:1019000041FF024623685B682046314698472368BA
:101910005B68204629460222984720469FED080B27
:10192000022103F079FC23685B6820460A49012202
:101930009847204603F01AFCCD46BD46BDE8F88323
:1019400000000000000000004091FF1F3CF3FF1F5B
:10195000B4CB0000C8CB0000CCCB0000AFF30080BC
:1019600010B5A0B07E486946002200F057FC6846DA
:101970000AF008FF02467B4C23685B6820466946F4
:101980009847204603F0F2FB684677490AF08EFD3F
:1019900018B97348FFF7CCFBDFE0684673490AF0DB
:1019A00085FD18B96E48FFF7B5FBD6E0684670496B
:1019B0000AF07CFD18B96A48FFF7CEFBCDE0684617
:1019C0006C490AF073FD18B96548FFF711FCC4E0D3
:1019D000684669490AF06AFD18B96148FFF752FC88
:1019E000BBE0684665490AF061FD18B95C48FFF73D
:1019F0005FFCB2E0684662490AF058FD18B95848E1
:101A0000FFF766FCA9E068465E490AF04FFD18B989
:101A10005348FFF76DFCA0E068465B490AF046FDBD
:101A200018B94F48FFF774FC97E0684657490AF029
:101A30003DFD18B94A48FFF77FFC8EE068465449DF
:101A40000AF034FD18B94648FFF78AFC85E068467D
:101A500050490AF02BFD18B94148FFF795FC7CE08E
:101A600068464D490AF022FD18B93D48FFF79CFC35
:101A700073E0684649490AF019FD18B93848FFF77C
:101A8000A3FC6AE0684646490AF010FD18B93448DC
:101A9000FFF7E4FC61E0684642490AF007FD18B927
:101AA0002F48FFF7EBFC58E068463F490AF0FEFC80
:101AB00018B92B48FFF7F2FC4FE068463B490AF0A3
:101AC000F5FC18B92648FFF7F9FC46E068463849A6
:101AD0000AF0ECFC18B92248FFF706FD3DE0684625
:101AE00034490AF0E3FC18B91D48FFF713FD34E050
:101AF000684631490AF0DAFC18B91948FFF71AFDAF
:101B00002BE068462D490AF0D1FC18B91448FFF7BC
:101B100021FD22E068462A490AF0C8FC18B9294884
:101B2000FEF7F2FC19E0684627490AF0BFFC18B935
:101B30002448FEF7E9FC10E0684624490AF0B6FCA8
:101B400018B90748FFF716FD07E0684620490AF074
:101B5000ADFC10B90248FFF723FD20B010BD00BF57
:101B6000B410FF1F3CF3FF1FD0CB0000D8CB000008
:101B7000E0CB0000E8CB0000FCCB00000CCC000068
:101B800020CC000034CC000048CC00005CCC00002D
:101B900074CC000084CC000098CC0000B0CC0000D5
:101BA000C8CC0000D8CC0000ECCC000000CD000078
:101BB0000CCD000018CD000028CD000038CD00006D
:101BC00054CD0000D010FF1F6CCD000088CD000068
:101BD0009CCD000038B50546054C204601F0FEF8C6
:101BE0002846214600F0D0FB204601F0FFF838BD22
:101BF000DC91FF1F08B5054B1B781BB10022034B7E
:101C00001A7008BD0248FFF7E5FF08BDD891FF1F15
:101C1000BC91FF1F10B52DED028B414B93ED007A67
:101C2000404B83ED007A404BD3ED007A3F4BD3ED30
:101C3000006A76EEE76A27EE267A37EE878A3C4B13
:101C40009B68032B1DDD3A48032100F0DBFA0446B4
:101C500020B100F099FA204603F0E6FB182003F0CB
:101C6000DFFB0446B0EE480A00F032FA2378032B7B
:101C700003D103222E4B1A732CE02D4B5B68DC60E2
:101C800028E0032B23D1182003F0CAFB0446B0EE52
:101C9000480A00F01DFA2378032B03D10322244BBA
:101CA0001A7317E0224B9A68511C586889000AF091
:101CB000FDF918B903221E4B1A730BE01C4B586038
:101CC000996840F821409A6801329A6002E0042243
:101CD000174B1A731648FFF77DFF164C23685B6895
:101CE000204615490B2298470F4BD3ED007A0F4B36
:101CF00093ED007A37EE677A094BD3ED006A27EE51
:101D0000267A37EE877A17EE100A09F0FBFA41ECD3
:101D1000100B2046022103F07FFABDEC028B10BDB0
:101D20005C91FF1F6491FF1F3081FF1F6407FF1F3D
:101D30004091FF1F3CF3FF1FACCD000070B5424B3C
:101D40001B782BB10120FFF755FF00223E4B1A7084
:101D5000FFF75AF9FFF782F9FFF7B6F93B4B1B780B
:101D60001BB33B4B93ED000AF3EE047A20EE270AF7
:101D70003848F6EE007A30EE270AFEF7D1FE364BF1
:101D80001B7893B1324B93ED007A344BD3ED007A4C
:101D900037EE677AB0EEC77ADFED317AB4EEE77AE4
:101DA000F1EE10FA01DDFFF735FF2E4C294894EDD6
:101DB000000AFEF7D5FE2C4D2C4895ED000AFEF7E3
:101DC000CFFE95ED007AF7EE007A77EE277A9FED59
:101DD000287A67EE877AFDEEE77A17EE906A94ED3F
:101DE000007ADFED247A27EE277ABDEEC77A17EE68
:101DF000104A174B93ED007A27EE277ABDEEC77A8B
:101E000017EE105A1C4B93ED007A67EE277A0320E9
:101E1000FDEEE77A17EE901A01F014FF0420314628
:101E200001F010FF0520294601F00CFF1E2021467D
:101E300001F008FF1D20214601F004FF0A20214681
:101E400001F000FF70BD00BF8891FF1F6D07FF1FED
:101E50005C91FF1FFC20FF1F24F2FF1F6491FF1FF6
:101E60000000803C8091FF1F3481FF1FF491FF1F11
:101E70000000004400C07F44B891FF1F2DE9F843E3
:101E80002DED028B4FF4B27003F0CAFA044600F055
:101E9000B5FF484B1C6048484FF00008C0F8008070
:101EA00080270771454E464C3146224609F0B0FD69
:101EB000444D9FED458ADFED458A2846B0EE480A3D
:101EC000F0EE680AB0EE681AFEF778FC2846404942
:101ED000224609F09DFD3F4D2846B0EE480AF0EE3F
:101EE000680AB0EE681AFEF76DFD28463A492246A8
:101EF00009F08EFDDFF81C914846B0EE480AF0EE7E
:101F0000000AFEF705FF354D48462946224609F0EE
:101F10007FFDDFF804914846B0EE480ADFED300A55
:101F2000FEF7F6FE48462946224609F071FD2D4D82
:101F30002846FEF797FB28462B49224609F068FD04
:101F40002A4D2846B0EE480AFEF78EFA2846284960
:101F5000224609F05DFDDFF8C490484600F050FBD2
:101F6000244D48462946224609F052FD224823497D
:101F700000F0FCFE2248C0F800800771314622467E
:101F800009F046FD1F4E30461F4900F02DFB30463C
:101F90002946224609F03CFD1C4E30461C4900F003
:101FA00023FB30462946224609F032FDBDEC028B68
:101FB000BDE8F8833C91FF1FA810FF1F0D0F000024
:101FC0006007FF1F6C91FF1F0000FA450000C84228
:101FD000410700008891FF1F25080000E10A00006A
:101FE000000070423881FF1F81060000D010FF1FE3
:101FF000F104000055260000DC91FF1F2CF3FF1FA9
:10200000EC20FF1FBC91FF1F74CC00004091FF1F0C
:10201000B8CD0000FC20FF1FF491FF1FB410FF1F7C
:1020200070B5144800F0B2FE70B1134800F01AF910
:1020300030B90D20012101F0A1FD0F48FFF790FC00
:102040000D4800F0E5FA70BD0D20002101F096FD6D
:10205000084800F0D7FD044650B1064E064D304604
:1020600000F014FEC1B2284600F0C8FD013CF6D1D4
:1020700070BD00BFDC91FF1FB410FF1F70B5044698
:102080000D46002303707323836008460AF07AFB31
:102090000130606009F0FAFC064610B90323237092
:1020A00003E029460AF010FB2661204670BD00BF00
:1020B000002202706922826004224260016170473E
:1020C000002202706922826004224260016170472E
:1020D00000220270662282600422426080ED040ABF
:1020E000704700BF10B483B003468DE8060000219E
:1020F0001970742199600821596003F110049DE85A
:10210000030084E80500184603B05DF8044B7047EF
:1021100000220270082242606422826080ED040B7B
:10212000704700BF2DE9F04383B0064689469046CC
:102130000023037062238360101D7060009201AC65
:102140000DF103030DF1070714F8015D03F8015FBA
:10215000BB42F9D1019C009400280EDD09F096FCE9
:10216000054610B90323337009E040F8044B494693
:10217000424601F0F5FA356101E000233361304653
:1021800003B0BDE8F08300BF10B504464368002BE0
:102190000BDD8368732B03D1006909F07FFC04E039
:1021A000622B02D1006909F079FC204610BD00BF06
:1021B0000222027081600022426070478368692BAE
:1021C0000CBF0069002070478368662B0CBF90ED40
:1021D000040A9FED010A70470000000010B5044694
:1021E0008368732B09D14368934208DC0846216950
:1021F0001A460AF0F7FA606810BD002010BD0020F2
:1022000010BD00BF83688B4203DD436853F8210093
:102210007047042303730020704700BF10B50C46BD
:102220000168204611440AF04FFA20460AF0AAFA43
:1022300010BD00BF70B504460D46006809F02EFCC5
:1022400028460AF09FFA013009F020FC064620B922
:10225000032323730023236070BD29460AF034FA58
:10226000266070BD70B50546067B003618BF012696
:102270008368002B0DDD002428462146FFF7C2FFAE
:102280000378002B18BF46F001060134AB68A34267
:10229000F2DC304670BD00BF38B50446FFF7B2FF30
:1022A00005462046FFF7DEFF18B92846FFF786FFF0
:1022B00038BD002038BD00BF38B50446FFF7A2FF87
:1022C00005462046FFF7CEFF18B92846FFF77CFFEA
:1022D00038BD9FED010A38BD00000000F8B5054685
:1022E00017461E46FFF78EFF04462846FFF7BAFF43
:1022F00040B96268204639469642B8BF3246FFF779
:102300006DFFF8BD0020F8BD38B50446FFF77AFF31
:1023100005462046FFF7A6FF08B9287A38BD0020F9
:1023200038BD00BF38B50446FFF76CFF05462046B0
:10233000FFF798FF08B9686838BD002038BD00BFB6
:1023400070B504461546FFF75DFF06462046FFF7C9
:1023500089FF28B9B068A84214BF0020012070BDD1
:10236000002070BD08B56922FFF7EAFF08BD00BF75
:1023700008B56622FFF7E4FF08BD00BF08B5732269
:10238000FFF7DEFF08BD00BF2DE9F04784B0064629
:102390000C46FFF767FF002840F0C18037683846D9
:1023A0000AF0F0F9421C554205F0030523685B680A
:1023B0002046394698473DB1002723681B682046D0
:1023C00039469847013DF8D123681B6820462C21E7
:1023D0009847B368002B0DDD002523681F68304641
:1023E0002946FFF791FF01462046B8470135B368FB
:1023F000AB42F2DCDB4303F00303002B14BF1D46AA
:102400000425002723681B68204639469847013D6C
:10241000F8D1B368002B40F382800027B8460DF155
:102420000B090DF1080A30463946FFF7EBFE054669
:102430008368732B01D0622B12D123685B6820461E
:1024400029696A6898476D686D4215F0030562D086
:1024500023681B68204641469847013DF8D15AE061
:10246000642B12D100F117050DF107030DF10F01D7
:1024700015F8012903F8012F8B42F9D123685B6815
:10248000204651460822984745E0742B2FD100F191
:10249000100595E803008AE8030003AA0DF1030381
:1024A0000DF1070012F8011D03F8011F8342F9D155
:1024B00004A9019B41F8103D23685B6820466946EA
:1024C0000422984704AB0DF1030203A813F8011D81
:1024D00002F8011F8342F9D104A9019B41F8103D84
:1024E00023685B68204669460422984713E0542B12
:1024F00011D0462B0FD000F113020DF1070312F893
:10250000011903F8011F4B45F9D123685B68204688
:1025100051466A6898470137B368BB4283DC04B010
:10252000BDE8F08770B504460E46182002F078FF2B
:1025300005463146FFF73CFE2B78032B01D1237370
:1025400070BDA16801316068890009F0AFFD10B964
:102550000323237370BD6060A26840F82250A36813
:102560000133A36070BD00BF38B504460D468369D2
:10257000002B08DD02694369591C4161D554836908
:10258000013B836138BD41690069113109F08EFD5D
:10259000206130B163695A1C6261C5541023A36184
:1025A00038BD0323237338BD10B5044600691021DC
:1025B00009F07CFD206110B11023A36103E0032327
:1025C0002373002323610023636110BD38B50446E3
:1025D000002505608560057345600561456185617D
:1025E000FFF7E2FF657338BD38B504460D46FFF7C7
:1025F000EDFF20462946FFF71DFE204638BD00BFEF
:1026000010B50446FFF7E2FF02232373204610BDF6
:1026100070B50546002303738368002B0FDD00248B
:1026200028462146FFF7EEFD064620B1FFF7ACFD38
:10263000304602F0F9FE0134AB68A342F0DC686872
:1026400009F02CFA00236B60AB606B732846FFF730
:10265000ABFF70BD10B50446006809F01FFA2046B4
:10266000FFF7D6FF206909F019FA204610BD00BF18
:1026700010B504460169FFF7DDFD002323732046F2
:10268000FFF792FF10BD00BF2DE9F0412DED028B49
:1026900088B005460E468368002B40F34E82002426
:1026A00028462146FFF7AEFD0378022B40F040821A
:1026B0008368623B122B00F24082DFE813F0D801FE
:1026C0003E02C2003E0269003E023E0213003E028C
:1026D0003E023E023E023E023E023E023E023E02FA
:1026E0008F0121016B69042B40F027822B69186848
:1026F000009001AA0DF107030DF10B0012F8011D66
:1027000003F8011F8342F9D1029EAB68A34219DD91
:1027100028462146FFF776FD074620B1FFF734FD36
:10272000384602F081FE182002F07AFE0746314654
:10273000FFF7BEFC3B78032B0EBF2B736B6843F88F
:10274000247021E09C421DD1182002F069FE04464D
:102750003146FFF7ADFC2378032B01D12B7313E037
:10276000AB68591C6868890009F0A0FC10B9032304
:102770002B7309E06860AA6840F82240AB68013317
:10278000AB6001E004232B732846FFF70DFFD4E173
:102790006B69042B40F0D1812B691868009001AA65
:1027A0000DF107030DF10B0012F8011D03F8011FD5
:1027B0008342F9D19DED028AAB68A3421ADD284617
:1027C0002146FFF71FFD064620B1FFF7DDFC30462E
:1027D00002F02AFE182002F023FE0646B0EE480A58
:1027E000FFF776FC3378032B0EBF2B736B6843F82F
:1027F000246022E09C421ED1182002F011FE044603
:10280000B0EE480AFFF764FC2378032B01D12B7349
:1028100013E0AB68591C6868890009F047FC10B9DF
:1028200003232B7309E06860AA6840F82240AB6874
:102830000133AB6001E004232B732846FFF7B4FE9D
:102840007BE16B69082B40F078812A696B46106840
:10285000516803C31A460DF107030DF10F0012F87A
:10286000011D03F8011F8342F9D19DED028BAB6876
:10287000A3421CDD28462146FFF7C4FC064620B1D2
:10288000FFF782FC304602F0CFFD182002F0C8FDB1
:102890000646B0EE480AF0EE680AFFF739FC3378D6
:1028A000032B0EBF2B736B6843F8246024E09C421B
:1028B00020D1182002F0B4FD0446B0EE480AF0EE34
:1028C000680AFFF725FC2378032B01D12B7313E053
:1028D000AB68591C6868890009F0E8FB10B903234C
:1028E0002B7309E06860AA6840F82240AB680133A6
:1028F000AB6001E004232B732846FFF755FE1CE173
:102900006B69082B40F019812A6902AB1068516885
:1029100003C303AA0DF1FF330DF1030012F8011DEB
:1029200003F8011F8342F9D1009B029304AB0DF120
:10293000FF3203A813F8011D02F8011F8342F9D1E9
:10294000009E0396029FAB68A3421DDD28462146E8
:10295000FFF758FC804620B1FFF716FC404602F016
:1029600063FD04970596182002F05AFD064604AB55
:1029700093E80600FFF7B6FB3378032B0EBF2B73EB
:102980006B6843F8246025E09C4221D106970796A6
:10299000182002F045FD044608AB13E90600FFF7D6
:1029A000A1FB2378032B01D12B7313E0AB68591CD7
:1029B0006868890009F07AFB10B903232B7309E0DA
:1029C0006860AA6840F82240AB680133AB6001E060
:1029D00004232B732846FFF7E7FDAEE0002E40F0FE
:1029E000AC802E69AB68A34219DD28462146FFF76B
:1029F00009FC074620B1FFF7C7FB384602F014FD7B
:102A0000182002F00DFD07463146FFF737FB3B78F3
:102A1000032B0EBF2B736B6843F8247021E09C429C
:102A20001DD1182002F0FCFC04463146FFF726FBBE
:102A30002378032B01D12B7313E0AB68591C686812
:102A4000890009F033FB10B903232B7309E0686098
:102A5000AA6840F82240AB680133AB6001E0042370
:102A60002B732846FFF7A0FD06236B7365E06E69A4
:102A7000042E62DDD5F810C0DCF80000009001AA39
:102A80000DF107030DF10B0012F8011D03F8011FF2
:102A90008342F9D1029F3B1D9E424ED10CF10406A8
:102AA000AB68A3421BDD28462146FFF7ABFB8046FF
:102AB00020B1FFF769FB404602F0B6FC182002F097
:102AC000AFFC804631463A46FFF72CFB98F80030C1
:102AD000032B0EBF2B736B6843F8248022E09C42CB
:102AE0001ED1182002F09CFC044631463A46FFF7FE
:102AF00019FB2378032B01D12B7313E0AB68591C0E
:102B00006868890009F0D2FA10B903232B7309E031
:102B10006860AA6840F82240AB680133AB6001E00E
:102B200004232B732846FFF73FFD06236B7304E055
:102B30000134AB68A3423FF7B3AD08B0BDEC028BE4
:102B4000BDE8F08138B505460C46FFF70DFD6B7BFF
:102B5000062B52D8DFE803F004091119213237009F
:102B60002F2C4AD101236B7338BD002C45D1284648
:102B7000FFF77EFD02236B7338BD2C2C3DD1032360
:102B80006B732846FFF710FD38BD24B12846214657
:102B9000FFF7C8FC01E004236B73AA68D34303F07A
:102BA0000303002B08BF042313446969994224D10D
:102BB0002846FFF7F9FC05236B7338BD28462146EC
:102BC000FFF762FD38BDAC68013C16D428462146AB
:102BD000FFF718FB037863B94268524202F0030220
:102BE0006B69934209D12846FFF7DEFC05236B731E
:102BF00038BD013CB4F1FF3FE8D138BD08B5FFF75F
:102C0000A1FF08BD70B504460125032620690368AD
:102C10009B689847002830D0637BA3B9206903687C
:102C20001B699847C0B2DB2805D166732069036829
:102C3000DB689847EAE7C02821D1657320690368FB
:102C4000DB689847E2E7032B1BD0012B10D12069EA
:102C500003681B699847C02807D102236373206962
:102C60000368DB689847002070BD0020607370BD6A
:102C7000022B08D10020607370BD002070BD0120C0
:102C800070BD012070BD002070BD00BF38B5044686
:102C9000032520690368DB689847C3B2627B3AB9B1
:102CA000DB2B01D16573F4E7C02B0DD0C0B238BD6A
:102CB000032A0CD100226273DC2B0BD0DD2B14BF56
:102CC0004FF0FF30DB2038BD4FF0FF3038BD4FF004
:102CD000FF3038BDC02038BD10B504460069036818
:102CE0001B699847637B032B04D1C3B2DC2B03D051
:102CF000DD2B03D0C0B210BDC02010BDDB2010BD45
:102D000010B50446C0290AD1006903681B68DB219D
:102D10009847206903681B68DC21984710BDDB29B0
:102D200009D1006903681B689847206903681B681C
:102D3000DD21984710BD006903681B68984710BDE6
:102D400070B505460E46144642B12B681B682846EE
:102D500016F8011B98470346013CF6D1184670BD92
:102D600008B5006903685B69984708BD10B4002284
:102D700002714FF47A7484600273034C0460016141
:102D800042735DF8044B7047D0CD000010B5044687
:102D9000437B022B03D100234373012010BD012B81
:102DA00013D1006903689B68984750B12069036894
:102DB0001B699847C0B2C02803D120690368DB684B
:102DC000984700236373012010BD002010BD00BF91
:102DD00008B5006903689B69984708BD08B5006994
:102DE00003681B68C021984708BD00BF08B500698B
:102DF00003681B68C021984708BD00BF38B504466A
:102E000000210F4A0F4B00F05FFB04F1AC05284690
:102E100001210D4A0D4B00F057FB022384F8583175
:102E2000C4F85C41C4F86051094B1A6842F0006272
:102E30001A600C3B1A6842F000621A60204638BDE6
:102E40001CCE000018CE0000E8CD000014CE00001B
:102E50003C80044070B504460D46B2F1FF3F35D1C9
:102E6000D0F85C0100F0DEFB0646D4F8600129468C
:102E700000F0D8FB9EB160B1D4F85C31D4F86001A9
:102E8000597D427D914298BF1846294600F0EEFBDD
:102E900070BDD4F85C01294600F0E8FB70BD28B194
:102EA000D4F86001294600F0E1FB70BDD4F85C3134
:102EB000DA8A92B242F00402DA82D4F86031DA8A15
:102EC00092B242F00402DA820B4870BD22B9D0F807
:102ED0005C0100F0CBFB70BD012A04D1D0F8600189
:102EE00000F0C4FB70BDD0F85C31DA8A92B242F0D7
:102EF0000102DA82004870BD90EEFEFF72B6012337
:102F00004376826D520102F184420021D161826DCB
:102F1000520102F184429361826D520102F18442B6
:102F2000D36162B6704700BF08B590F821208A428D
:102F30001CD001290ED160220D4B1A70E122013301
:102F40001A70012380F82130426D520102F184424F
:102F5000136009E041B9074A117080F82110426DF1
:102F6000520102F184421160FFF7C8FF08BD00BFA3
:102F7000004007400140074038B504460D46437EF7
:102F800013F0FF0F01D000F04DF8012D06D8A36D0E
:102F90005B0103F184420023936040E0A36D5B0179
:102FA00003F1844301229A60042D0CD8A36D5B01C8
:102FB00003F1844200231360A26D520102F18442A6
:102FC000536004232BE0082D0DD8A36D5B0103F1A2
:102FD000844301221A60A36D5B0103F18443002244
:102FE0005A6008231BE0102D0DD8A36D5B0103F17F
:102FF000844300221A60A36D5B0103F18443012224
:103000005A6010230BE0A36D5B0103F1844201239E
:103010001360A26D520102F184425360202384F8B0
:10302000203038BD70B50446836D5B0103F18442E6
:10303000D26942B102F02CFAA36D5B0103F1844224
:10304000D269002AF6D103F184439B6923B1E38A54
:103050009BB243F00203E38272B6637E13F0FF0F6C
:1030600037D0236F1A68636F1E68A36F1D68E36F04
:103070001868D4F880301968D4F884301B6832445A
:103080002A4402440A441A44C2F34E02636E42F4D4
:1030900000421A60D4F88C301A68D4F890301E6858
:1030A000D4F894301D68D4F898301868D4F89C305F
:1030B0001968D4F8A0301B6832442A4402440A44F8
:1030C0001A44C2F34E02A36E42F400421A60002377
:1030D000637662B6A37E13F0FF0F0DD02046022167
:1030E00000F06CF82046022100F054F9204604213B
:1030F000FFF742FF0023A37670BD00BF38B504463A
:10310000C37E0D468B4258D0437E13F0FF0F01D093
:10311000FFF788FF072D07D90D2D29D8A5F1080342
:10312000DBB2012B0FD800E00825E36B5B0103F154
:1031300084420023D360E26B520102F18442936027
:10314000FF23E36138E0A5F10A03DBB2012B10D8BD
:10315000E36B5B0103F184430122DA60E36B5B0103
:1031600003F1844300229A6040F2FF33E36123E0DD
:103170001025A5F10C03DBB2012B0FD8E36B5B012B
:1031800003F184430022DA60E36B5B0103F18443C3
:1031900001229A6040F6FF73E3610DE0E36B5B018F
:1031A00003F184420123D360E26B520102F18442B5
:1031B00093604FF6FF73E361E57638BD38B504469A
:1031C00090F824300D468B4200F0E380437E13F0EC
:1031D000FF0F01D0FFF726FF0F2D56D9236C5B019F
:1031E00003F184420123D360E26B520102F1844275
:1031F0005360E26B520102F184421360E36B5B01A6
:1032000003F1844200235361E26B520102F18442D4
:103210009361102D0CD1236C5B0103F184430022D8
:103220009A60E36B5B0103F184430122DA6129E0D8
:10323000112D0BD1236C5B0103F1844201239360B8
:10324000E26B520102F18442D3611BE0122D0BD1DB
:10325000236C5B0103F1844200239360E26B520113
:1032600002F18442D3610DE0132D0BD1236C5B017D
:1032700003F1844301229A60E36B5B0103F1844311
:103280000022DA6184F8245038BD236C5B0103F11D
:1032900084430022DA6065B9236C5B0103F1844347
:1032A0009A60E36B5B0103F184430122DA616123DD
:1032B00054E0012D0DD1236C5B0103F18443002206
:1032C0009A60E36B5B0103F184430122DA616123BD
:1032D00044E0022D0CD1236C5B0103F184420023F6
:1032E0009360E26B520102F18442D361412335E0E5
:1032F000032D0DD1236C5B0103F1844301229A60FD
:10330000E36B5B0103F184430022DA61412325E092
:10331000042D0DD1236C5B0103F1844301229A60DB
:10332000E36B5B0103F184430022DA61212315E0A2
:10333000052D0DD1236C5B0103F1844301229A60BA
:10334000E36B5B0103F184430022DA61212305E092
:10335000E38A9BB243F00103E38238BDE26B520182
:1033600002F1844200215160E26B520102F1844279
:1033700001211160E26B520102F1844299099161CD
:10338000E26B520102F18442C3F34013536184F8AB
:10339000245038BD38B5044690F825300D468B4290
:1033A0005FD0437E13F0FF0F01D0FFF73BFE8DB9D6
:1033B000E36B5B0103F1844301221A61236C5B011F
:1033C00003F1844200235360226C520102F18442D3
:1033D000136044E0012D11D1E36B5B0103F18442E2
:1033E00001231361226C520102F1844200215160D9
:1033F000226C520102F18442136030E0022D11D19F
:10340000E36B5B0103F1844201231361226C5201DF
:1034100002F184425360236C5B0103F18443002278
:103420001A601CE0EB1EDBB2012B10D8E36B5B01D2
:1034300003F1844201231361226C520102F18442A0
:103440005360226C520102F18442136007E0052DA3
:1034500007D1E36B5B0103F1844300221A6184F816
:10346000255038BD38B504460021C176C16180F8C9
:103470002010022280F8212080F82210012580F8F7
:10348000235080F8241080F825104176C1824175C0
:10349000026C520102F184421561FFF745FD20469E
:1034A0000A21FFF72BFEA57620462021FFF764FDB9
:1034B00020462946FFF782FE20462946FFF76AFF8D
:1034C0002046FFF71BFD38BD10B504460176826229
:1034D000C3624FF400330363CB0403F1804202F56F
:1034E0006C324263334A1A448263334A1A44C263D9
:1034F000324A1A440264324A1A444264314A1A4433
:103500008264314A1A44C264304A1A440265304A1D
:103510001A4442652F4A1A4482652F4A1A44C265EA
:103520002E4A1A4402662E4A1A4442662D4A1A440A
:1035300082662D4A1A44C2662C4A1A4402672C4AF3
:103540001A4442672B4A1A4482672B4A1A44C267BC
:103550002A4A1A44C0F88020294A1A44C0F8842014
:10356000284A1A44C0F88820274A1A44C0F88C20F8
:10357000264A1A44C0F89020254A1A44C0F89420DC
:10358000244A1A44C0F89820234A1A44C0F89C20C0
:10359000224A1A44C0F8A02001EB8102204B03EB21
:1035A000C203C0F8A430273180F8A810FFF75AFFF3
:1035B000204610BD04B0034008B003400CB00340E7
:1035C00010B0034014B0034018B003401CB00340D7
:1035D00020B0034024B0034050B0034028B0034063
:1035E0002CB0034030B0034034B0034038B0034047
:1035F0003CB0034040B0034044B0034048B00340F7
:103600004CB0034054B0034058B003405CB003409A
:1036100060B0034064B0034068B003406CB0034046
:10362000106003402B2907D8836A585C00F01F0004
:103630001F3818BF0120704700207047836A5B5C09
:1036400013F0800F026C4FEA421202F1844214BF61
:1036500000210121116172B6426B90F8221003F033
:103660001F0303EB8113136062B670472DE9F84F17
:1036700004468B46FFF7D6FF38B9E38A9BB243F086
:103680000403E3823548BDE8F88F637D0133637539
:10369000637E13F0FF0F02D02046FFF7C3FC636D7B
:1036A0005B0103F18443DE69003618BF01267EB159
:1036B00072B6636B1F68E36BD3F800A0236C1D68C0
:1036C000636DD3F80090A36DD3F8008062B604E078
:1036D0000025AA46A846A9462F46A36D5B0103F123
:1036E00084430022DA6020465946FFF7A7FF636D46
:1036F0005B0103F18443DB6943B101F0C9FE636DF3
:103700005B0103F18443DB69002BF6D172B6636B76
:103710005B0103F18443DB691BB1636C186880B201
:1037200005E0E38A9BB243F01003E3820B4862B6E4
:1037300076B172B6E36BC3F800A0236C1D60636DB5
:10374000C3F80090A36DC3F80080636B1F6062B67E
:10375000637D013B6375BDE8F88F00BF90EEFEFF0F
:10376000844641EA000313F003036DD1403A41D38C
:1037700051F8043B40F8043B51F8043B40F8043B4B
:1037800051F8043B40F8043B51F8043B40F8043B3B
:1037900051F8043B40F8043B51F8043B40F8043B2B
:1037A00051F8043B40F8043B51F8043B40F8043B1B
:1037B00051F8043B40F8043B51F8043B40F8043B0B
:1037C00051F8043B40F8043B51F8043B40F8043BFB
:1037D00051F8043B40F8043B51F8043B40F8043BEB
:1037E00051F8043B40F8043B51F8043B40F8043BDB
:1037F000403ABDD2303211D351F8043B40F8043B7B
:1038000051F8043B40F8043B51F8043B40F8043BBA
:1038100051F8043B40F8043B103AEDD20C3205D38A
:1038200051F8043B40F8043B043AF9D2043208D082
:10383000D2071CBF11F8013B00F8013B01D30B88F4
:1038400003806046704700BF082A13D38B078DD0D2
:1038500010F003038AD0C3F10403D21ADB071CBFA4
:1038600011F8013B00F8013B80D331F8023B20F80E
:10387000023B7BE7043AD9D3013A11F8013B00F847
:10388000013BF9D20B7803704B7843708B788370CF
:103890006046704760223A4B1A70E12201331A7079
:1038A000384B1B78082B10D1212203F1804303F5FC
:1038B0006C331A60132334490B6001F5FF2101F2C8
:1038C000FC710A60314A13601FE00A2B0DD13922C6
:1038D0002F4B1A6013232C490B6001F5FF2101F2D5
:1038E000FC710A60294A13600FE00C2B0CBF3522D3
:1038F0005D22274B1A60122323490B6001F5FF213B
:1039000001F2FC710A60214A1360224B1B7833B12B
:103910000123214A136002F50022136005E0002311
:103920001D4A136002F5002213601C4B1B78012B0B
:1039300006D880231A4A136002F5002213601AE0A9
:10394000042B06D88423164A136002F50022136064
:1039500011E0082B06D88523114A136002F50022D6
:10396000136008E0102B94BF862387230C4A136052
:1039700002F50022136001220A4B1A70704700BF43
:10398000004007407D07FF1F0CB003400CB00B4008
:1039900008B0034031F2FF1F20B003407E07FF1F35
:1039A00024B0034030F2FF1F094B1A6842F48052E2
:1039B0001A60084B1B781BB18022074B1A7002E07B
:1039C000C022054B1A7080F30C00044B188070471E
:1039D0002C80044031F2FF1F21C00C4000C00C407D
:1039E000094B1A6842F400521A60084B1B781BB14D
:1039F0008022074B1A7002E0C022054B1A7080F338
:103A00000C00044B188070472C80044031F2FF1FDB
:103A100021D00C4000D00C40024B1A6801321A60D1
:103A2000704700BF34F2FF1F08B50D4C236813F434
:103A3000802F01D000F060FC236813F4806F01D068
:103A400002F0B0F8236813F4006F01D002F06CFCB0
:103A5000236813F4805FE9D002F02AFFE6E700BF95
:103A60003480044008B5FFF7DFFF00BF1022014B90
:103A70001A80704700200540704700BF024A136853
:103A800018441060184670478007FF1FEFF3138338
:103A9000ABB9EFF31083ABB9EFF3058323B10F2B71
:103AA00005D9094A985C03E04FF4807000E00020DB
:103AB000EFF311833BB1834238BF184670474FF094
:103AC000FF30704700207047F0E300E00B4B1B789D
:103AD000DBB2802B0ED10A4A0A4B1A60002203F592
:103AE000573303F2BD331A70044A1378DBB2802BCC
:103AF000FBD001E0002070470120704703E0074041
:103B000000002822448004400B4B1B78DBB2012BC1
:103B10000FD1602203F1804303F5FC231A70064A9B
:103B20001378DBB2802BFBD1044A054B1A600120CD
:103B300070470020704700BF03E007400000060206
:103B400044800440044B00221A6004490A60044A7D
:103B5000106010221A60704714D0034004D0034054
:103B600000D0034018B1102828BF102000E0012029
:103B7000014B1870704700BF8407FF1F3F281ED8F5
:103B80000F4B53F8303093F8802212F0FF0F08D01B
:103B900019B1012283F880207047012283F80021A7
:103BA0007047074B03EBC000436821B11A6842F02D
:103BB00003021A6070471A6822F002021A60704706
:103BC00048CE00003F283AD81D4B03EBC0035B688A
:103BD000012919D0042925D0194A52F83020002093
:103BE00082F8800219B94FF480721A607047022976
:103BF00003D140F203121A60704703290CBF4FF43F
:103C0000817200221A6070470D4A52F8302001215B
:103C100082F880124FF4A2721A601A6822F0200211
:103C20001A607047064A52F83020012182F880124B
:103C30004FF4A2721A601A6842F020021A607047AC
:103C400048CE000010B50446A0F14203DBB2012BC0
:103C500015D8974B1B780B2B03D8C3F10C03994055
:103C600003E00C2B84BF0C3B1941422C03D10846C6
:103C7000FFF79AFE10BD0846FFF7B2FE10BD8C4B51
:103C80001B78012202FA03F0002908DC20460021FB
:103C9000FFF774FF20460121FFF794FF10BD0A468D
:103CA000884208D820460121FFF768FF20460121FD
:103CB000FFF788FF10BDE01EC0B2012806D87D487E
:103CC000006800FB011222FA03F32BE0A4F11D00AF
:103CD000C0B2012806D87848006800FB011222FA19
:103CE00003F31FE0022C0AD00E2C08D0E01FC0B254
:103CF000012804D9A4F12300C0B2032806D86F48D4
:103D0000006800FB022222FA03F30BE0A4F110008A
:103D1000C0B2012894BF6A486A48006800FB0112DB
:103D200022FA03F3A01E242800F22681DFE810F017
:103D300079005D0064005600410087008E0033006A
:103D40003A0024012401240180002401B100B800BC
:103D50002401240148004F0025002C0024012401E7
:103D60002401240124016B00720024012401240198
:103D7000240195009C00A300AA00534A136040F25E
:103D80004442524B1A6010BD514A136040F2444203
:103D9000504B1A6010BD504A136040F244424F4BE2
:103DA0001A6010BD4E4A136040F244424D4B1A60F7
:103DB00010BD4D4A136040F244424C4B1A6010BD96
:103DC0004B4A136040F244424A4B1A6010BD4A4AC3
:103DD000136040F24442494B1A6010BD484A1360D8
:103DE00040F24442474B1A6010BD474A13604FF4FB
:103DF0005172464B1A6010BD454A13604FF4517220
:103E0000444B1A6010BD444A13604FF45172434B47
:103E10001A6010BD424A13604FF45172414B1A6050
:103E200010BD414A136040F24442404B1A6010BD3D
:103E30003F4A136040F244423E4B1A6010BD3E4A76
:103E4000136040F244423D4B1A6010BD3C4A13607F
:103E500040F244423B4B1A6010BD3B4A13604FF4A2
:103E600051723A4B1A6010BD394A13604FF45172C7
:103E7000384B1A6010BD384A13604FF45172374BFB
:103E80001A6010BD364A13604FF45172354B1A60F8
:103E900010BD354A136040F24462344B1A6010BDC5
:103EA000334A136040F24462324B1A6010BD00BFC7
:103EB0008407FF1F0890034008800B4008900B40C8
:103EC00008900C40088003401080034004B0044078
:103ED0001880034008B00440208003400CB0044028
:103EE0002880034010B004403080034010C00440DC
:103EF0003880034014C004404080034018C0044090
:103F0000488003401CC0044010900340309004409F
:103F1000189003403490044010800B4048A00440A7
:103F200018800B404CA0044010900B4000C004408F
:103F300018900B4004C0044020900B4008C004407F
:103F400028900B400CC0044030900B4020B004403F
:103F500038900B4024B0044040900B4028B00440FF
:103F600048900B402CB0044010900C4000A004403E
:103F700018900C4004A0044020467F29D4BF0021A3
:103F80000121FFF7FBFD20460121FFF71BFE10BDBD
:103F900072B60D4B1B680D4A12680D49096862B66E
:103FA00011F0806F02D0322B88BF0132C3F52F335E
:103FB00003F21F339B080749A1FB03039B084FF43F
:103FC0007A7000FB0230704718E000E034F2FF1F07
:103FD00004ED00E0176CC11638B50546FFF7D8FFB1
:103FE000044625B938BD013D0AD004F57A74FFF7BF
:103FF000CFFF001BB0F57A7FF5D201F049FAF6E762
:1040000038BD00BF70B5404B4FF000621A604FF0F2
:1040100080521A604FF000521A604FF080421A60CE
:104020004FF000421A600022384B1A604EF6FF70C3
:1040300004331860282336490B6008310B600831BF
:104040000B6008310B6008310B6008310B600831E0
:104050000B6008310B602F4D2B602F4C236001F556
:10406000002101F6D8710B6008310B6008310B603C
:1040700008310B6008310B6008310B600921274EB5
:10408000316006F5805604363260043630600436FE
:10409000336008363360143E316006F5FE26043680
:1040A0003260043630600436336008363360143EC4
:1040B000316006F5805604363260043630602B607D
:1040C0002360174801601749086840F400700860D1
:1040D0002839086840F00070086001F501210A6085
:1040E00047F6FF71104A1160043213600832136002
:1040F00008220E4B1A60FFF7CDFB4FF4C870FFF794
:104100006BFF00F079FC70BD04E100E00480034027
:104110000C8003400C900B4014900B400080034037
:1041200000900B402C80044008900C4000900C4004
:1041300030B40E4B1B7843F002020D4C04EBC2046A
:1041400060600C48007800280CBF8824C82444EA2A
:104150000141074D45F8321080F00100054A10700A
:1041600083F00103014A137030BC7047A0F2FF1FB7
:104170000000FF1F19F3FF1F10B4431E032B11D8BB
:1041800072B60A4A52F8230050B14268074941F812
:104190002320074A32F813400188611A22F81310CD
:1041A00062B600E000205DF8044B704790F2FF1FFC
:1041B000D8F6FF1F013803280DD872B6074B53F805
:1041C00020302BB1002001305B68002BFBD100E0D8
:1041D000002062B670470020704700BFE4F2FF1F66
:1041E00038B572B601231B491B4C5A1812F8012C22
:1041F00012F0080F24D09A0054F832506DB9164BC3
:1042000003EBC20108304860144943F83210144BE4
:104210001A78013A1A7062B638BD42F0010254F8B9
:1042200032506DB90C4B03EBC201083048600D49A8
:1042300043F832100A4B1A78013A1A7062B638BD48
:104240000133052BD1D162B60022054B1A7000F064
:1042500045FC38BDE0D000000000FF1F8800400092
:104260000EF3FF1FC800400010B4431E032B37D8C5
:10427000400140F010001C4A104472B61B4AD25C48
:10428000032A09D8DFE802F019021B0508300222D0
:1042900016E00830042213E0154A52F823201AB918
:1042A000134A42F8231003E0124A52F823205160C7
:1042B000104A42F8231062B612E0032200E0052201
:1042C0000A4CE25401F10803436000F00803002B9C
:1042D0000CBF8823C8230A8843EA0243036062B6FE
:1042E0005DF8044B704700BF0000FF1F4CF2FF1F3A
:1042F000E4F2FF1FF4F2FF1F2DE9F84FA34CDFF8A3
:10430000E092DFF8E0A2DFF8E0B22578EDB215F038
:10431000040F1DD09E4B1B7813F0FF0F16D09D4B42
:104320001B7803F0FF022BB1531EDBB2994A1370C6
:1043300003B900BE984B1B7803F0FF0233B1531E44
:10434000DBB2954A13700BB900F026FD04232370ED
:1043500015F0080F00F0E48299F80030DBB21D0977
:1043600040F021828D4D9E0805EBC6035A6855F832
:104370003630C3F38303013B0C2B00F21082DFE8DD
:1043800013F0CB01CB010E020E020E020E020E0242
:104390000E02E8010E020E020E020D0080491368A3
:1043A0000B6052684A607F4A45F8362000227E49F9
:1043B0000A607A490A618A6101217C4A11709BB2C4
:1043C00040F28162934218D8B3F5D06F2ED2B3F584
:1043D000817F00F01E8106D8802B00F0C980822BDF
:1043E00000F0CC8066E140F20232934200F0268178
:1043F000B3F5A06F00F062815CE142F221029342CA
:1044000000F0868107D8B3F5086F00F0AB80B3F5F4
:10441000106F11D04EE142F22122934200F041810F
:1044200042F22132934200F0498143E1604B5D68E2
:10443000002D40F0188130E1594B9A78544B1A7096
:10444000564D05F180062B6A13F0800F03D0686A81
:10445000083800F043FB0835B542F4D1DFF88C8111
:1044600000263746534AB05828B1456800F036FB5D
:104470000DB12846F9E700234E4973504E4AB35018
:104480004E4BF05828B1456800F028FB0DB1284686
:10449000F9E7002349497350494AB35028F8023FCD
:1044A000484BFB5C023B032B0AD8DFE803F0020613
:1044B00002060022434BDA5502E00122414BDA5555
:1044C00001370436102ECDD100223F4B1A70012542
:1044D0003E4EDFF81C81314F05EB080313F8013C19
:1044E00006F8043B13F0080F2DD000F0D7FA48B1BE
:1044F000A90007EB451200F108035360344A47F85E
:10450000312007E0AB00002247F833202E4B1A7809
:1045100001321A7000F0C2FA58B1AB0043F0010347
:1045200007EBC30100F108024A601E4A47F8332036
:1045300009E0AB0043F00103002247F83320224B8F
:104540001A7801321A70AA0042F00201002347F8DB
:10455000313042F0030247F8323001351D4B9E42A4
:10456000BAD11EE20A4B1B781B4D2B700127AAE023
:10457000194D00232B706B700227A4E0084B9B8819
:10458000042B37D90F22154B1A70C1E08020074049
:1045900018F3FF1FA1F2FF1F1AF3FF1F0000FF1FF8
:1045A00004F3FF1FC800400038F2FF1F19F3FF1F7C
:1045B000E4D0000090F2FF1F3CF2FF1FE4F2FF1F67
:1045C000F4F2FF1F4CF2FF1F0EF3FF1FC420074041
:1045D00088004000D420074010F3FF1FC020074090
:1045E000902007409420074098200740D6F6FF1FF0
:1045F000E0D00000A04A0021117051709F4A12F8CB
:10460000233013F0020F5CD09B4D01232B70022747
:1046100059E09B4B9B8803F07F03042B02DC984AF4
:1046200052881AB10F22954B1A7071E0934A12F812
:10463000231021F0020102F82310B2E1904B9B8875
:1046400003F07F03042B02DC8D4A52881AB10F223B
:104650008A4B1A705CE0894A12F8231041F002017B
:1046600002F823109DE1864B5E889F88854BA3F15D
:104670000C02114633F80C0CB04209D133F80A0C85
:10468000B84205D1360A032E0CBF2F7817891AE0DD
:104690000D690C330C32002DEBD10F22774B1A70C1
:1046A00036E0794B1A68794B1A60754B9A78784BDB
:1046B0001A7076E10F22714B1A7029E000273D46EF
:1046C00001E002276C4D6E4BDB889F4228BF1F46DE
:1046D000402F34BF3E46402628463146FFF728FD8E
:1046E0003544BF1B03D13F2E00F2608110E0402F04
:1046F00034BF3E46402628463146FFF719FD354473
:10470000BF1B01D13F2E03D9624B1D60624B1F803E
:1047100001238AF8003042E0594B198842F2210304
:10472000994212D15D4BD81D12F8011B03F8011FED
:104730008342F9D15A4B1B68862B02D10F22594B69
:104740001A7000200146FFF7F3FC574B45F836304E
:1047500025E0504B1E68BEB14F4FB7F80080B8F14E
:10476000400F34BF4546402530462946FFF7E0FC60
:10477000C5EB08039BB23B800BB9402D01D13544FA
:1047800000E00025434B1D603D4B1B88B3F5A06F37
:1047900005D13B4B00225A709B788BF800300123E7
:1047A0008AF80030B9E0414E9F0806EBC708D8F8F8
:1047B0000420A2F10800013DEDB213F0080F47D02C
:1047C00000F08CF93A4B53F825304BB35A6838490E
:1047D00041F8252003F10802C8F80420354A525D4B
:1047E000032A12D8DFE802F002060A0E0321314A3A
:1047F00051550AE002212F4A515506E005212D4A64
:10480000515502E004212B4A515518F0080F0CBFF6
:104810008822C8221B8842EA034346F837307CE0EE
:10482000244B5B5D032B0BD8DFE803F077770206A0
:104830000022204B5A5570E001221E4B5A556CE065
:1048400018F0080F0CBF022203221A4B5A5564E0DD
:1048500056F837301B0C22F8083C002B55D00023AB
:1048600022F8063C42F8043C134B53F825302BBB8E
:10487000114B43F8250025E010F3FF1FC02007402F
:1048800004F3FF1FF0D0000034F2FF1FE8F6FF1F13
:1048900028F3FF1F38F2FF1F0CF3FF1FDFF6FF1F87
:1048A000E0F6FF1FA1F2FF1FC80040000000FF1F3D
:1048B000E4F2FF1F4CF2FF1F90F2FF1F3F4B53F833
:1048C000253058603D4B43F825003D4B33F815101B
:1048D00032F8082C0A4423F8152000F0DFF860B104
:1048E00000F10803C8F8043018F0080F354B364AB9
:1048F00008BF134646F837300FE0002346F837303C
:10490000324B1A7801321A7007E018F0080F2D4B5D
:104910002D4A08BF134646F8373008232370F4E4C5
:1049200015F0010F22D02A4902230B700022294BD7
:104930001A70294B24481860284C5C6098602848FD
:10494000D8601A619A610D20264B1870FF23264803
:1049500003700838037018300270244A13709F22C5
:10496000234B1A7001230B70BDE8F88F15F0800FF0
:1049700005D00D221B4B1A708022403B1A7015F097
:10498000020F06D0184B1A78D2B21A700222083BD6
:104990001A7015F0100F0ED01022164B1A70BDE8C9
:1049A000F88F00200146FFF7C3FBB1E6284600213F
:1049B000FFF7BEFBACE6BDE8F88F00BF3CF2FF1F7F
:1049C000D8F6FF1FC8004000880040000EF3FF1F0C
:1049D00094200740A0F2FF1F0000FF1F50F2FF1FAE
:1049E000A4F2FF1FC0200740882007408C2007400A
:1049F000842007408020074008B503F0C1F8002359
:104A000020491A465A50C81842600833882BF9D1F9
:104A10001D4B1A6842F480221A601C4B1A6842F03F
:104A200040721A60032203F5C92303F5A2731A70BA
:104A3000A022043B1A70134BC3F30721144A1170D0
:104A4000C3F30741143211701B0E04321370FF239D
:104A5000343A137008321370783A13700123843299
:104A6000137000216C3211707C3A13707022094B64
:104A70001A704FF40012A3F231331A601022064B61
:104A80001A7008BD0000FF1F3480044000D80040A9
:104A90009C20074035E400E00821074072B60D4B2A
:104AA0001A68B2FA82F30B2B02D962B60020704763
:104AB0004FF00041D94022EA010206490A6062B67D
:104AC000054903EBC303DB00C8180022CA5042604B
:104AD000704700BF8807FF1F0004FF1F08B50F4B7A
:104AE000C31A0F4AA2FB03131B090B2B14D80D4A40
:104AF00012783AB10C4A127812F0FF0F02D0FFF789
:104B00006FFB08BD72B6094A4FF0004121FA03F36A
:104B100011681943116062B608BD00BF0004FF1F91
:104B2000398EE3380EF3FF1F18F3FF1F8807FF1FAE
:104B300010B5134B1B6853B9124B1B7813F0FF0FC2
:104B400018D00320FFF718FB0D4B1860A8B10C4BD1
:104B5000186843885A1C03441C7A03889A4206D377
:104B6000FFF7BCFF0022064B1A60204610BD4280B2
:104B7000204610BD4FF0FF3010BD4FF0FF3010BD8C
:104B800024F3FF1F18F3FF1F08B50D4B1B6883B9F3
:104B90000C4B1B7813F0FF0F08D00320FFF7ECFA43
:104BA000074B186028B94FF0FF3008BD4FF0FF30B9
:104BB00008BD034B1B685A881344187A08BD00BF10
:104BC00024F3FF1F18F3FF1F044B9888044B1B6846
:104BD0001BB11A885B88D31A18447047D8F6FF1F98
:104BE00024F3FF1F10B50B4B1B7813F0FF0F0FD0F2
:104BF000094B186820B1FFF771FF0022064B1A60BD
:104C000003242046FFF7B8FA10B1FFF767FFF8E773
:104C100010BD00BF18F3FF1F24F3FF1F2DE9F84F4D
:104C200004460122374B1A708B46002964D00E4689
:104C3000DFF8E080DFF8E0909A46334FD8F8003094
:104C40007BBB99F8003013F0FF0F06D100222D4BEB
:104C50001A704FF0FF30BDE8F88F2C4D0420FFF79D
:104C6000A9FA07280AD801238AF80030FFF716FFAF
:104C7000C8F80000A8B900238AF80030013D01D02F
:104C80003B7833B10122204B1A704FF0FF30BDE862
:104C9000F88F00F0FDFB99F8003013F0FF0FDDD125
:104CA000D4E700233B70D8F800104A88C2F14005D1
:104CB000AE4238BF354602F108030B442A444A800D
:104CC000761B3DB1254414F8012B03F8012BAC42AF
:104CD000F9D100E025464B883F2B07D940230B80B4
:104CE0000420FFF7C1FA0023C8F800300522084B62
:104CF0001A700EB12C46A1E70022024B1A705846DA
:104D0000BDE8F88F1BF3FF1F20F3FF1F21480100B0
:104D10001AF3FF1F1CF3FF1F18F3FF1F00B583B02A
:104D200002AB03F8010D18460121FFF777FF03B02E
:104D30005DF804FB10B5144B1B7813F0FF0F21D066
:104D40000122124B1A70124B196851B10024114BF9
:104D50001C704B880B800420FFF786FA0C4B1C60FC
:104D60000DE0FFF79BFE014630B10022094B1A709F
:104D70000420FFF779FA02E00122064B1A700022A4
:104D8000024B1A7010BD00BF18F3FF1F1BF3FF1F6B
:104D90001CF3FF1F1AF3FF1F08B50E4B1B7813F00F
:104DA000FF0F16D10C4B196841B14B880B800420C2
:104DB000FFF75AFA0022084B1A6008BDFFF76EFE93
:104DC000014618B10420FFF74FFA08BD0122034B3A
:104DD0001A7008BD1BF3FF1F1CF3FF1F1AF3FF1F00
:104DE00008B503681B68C9B2984708BD08B50368D1
:104DF0001B68C9B2984708BD08B503681B68C9B2EB
:104E0000984708BD08B503681B68C9B2984708BD34
:104E100008B503681B68C9B2984708BD08B50368A0
:104E20001B68C9B2984708BD08B503681B68C9B2BA
:104E3000984708BD08B503681B68C9B2984708BD04
:104E400008B5044800EB5100B0FBF1F000F072FB34
:104E500008BD00BF002A751510B51446054800EBC3
:104E60005100B0FBF1F000F065FB204600F0DAFBEA
:104E700010BD00BF002A751508B500F00DFC08BD77
:104E800008B5084600F042FC08BD00BF08B508465A
:104E900000F0A2FC08BD00BF08B50846114600F0AE
:104EA00051FC08BD08B5084600F0D0FC003018BF22
:104EB000012008BD08B5084600F0EAFC003018BF24
:104EC000012008BD08B500F0E3FD08BD08B500F0FD
:104ED00029FE08BD08B500F0EBFD08BD08B500F0DF
:104EE000B5FD08BD08B500F037FE08BD08B500F0F7
:104EF000BDFD08BD08B5084600F0F6FC012008BD60
:104F000008B5084600F0F0FC012008BD10B51446B5
:104F10000846114600F038FD204610BD38B50D4654
:104F2000084607F02FFC04462846214600F02CFDD9
:104F3000204638BD08B5044800EB5100B0FBF1F045
:104F400001F082FA08BD00BF000E270710B5144615
:104F5000054800EB5100B0FBF1F001F075FA204676
:104F600001F0B2FA10BD00BF000E270708B501F02E
:104F7000E5FA08BD08B5084601F018FB08BD00BFFA
:104F800008B5084601F05AFB08BD00BF08B5084641
:104F9000114601F027FB08BD08B5084601F050FB9B
:104FA000003018BF012008BD08B5084601F06AFBB3
:104FB000003018BF012008BD08B501F003FC08BD92
:104FC00008B501F049FC08BD08B501F00BFC08BDAF
:104FD00008B501F0D5FB08BD08B501F057FC08BDC8
:104FE00008B501F0DDFB08BD08B5084601F06CFB13
:104FF000012008BD08B5084601F066FB012008BD88
:1050000010B514460846114601F0AEFB204610BD0F
:1050100038B50D46084607F0B5FB0446284621463C
:1050200001F0A2FB204638BD704700BF044B0022B0
:105030001A714FF47A7199601A73024A1A607047B4
:105040002CF3FF1F50D00000704700BF30B403683E
:105050002BB100249C6003680124DC6016E01A4B2D
:105060001C6844F400041C600124184B1C6003F508
:1050700080730360164D03689C683CB11033036075
:10508000AB42F8D90023036018461BE00468114BBB
:1050900023441B11104D45F82310226002680321A0
:1050A000916001790D4A995403F1300253119B002C
:1050B00003F1604303F5614302F01F02012000FA8F
:1050C00002F21A6030BC70473C800440007003401C
:1050D0003F710340008FFCBF8C07FF1F30E400E0EE
:1050E00010B403684BB1064A1A441211054C064924
:1050F00041F8224000229A6002605DF8044B70473C
:10510000008FFCBF495000008C07FF1F08B501222B
:10511000024B1A60024B1B68984708BD0C71034094
:105120008C07FF1F08B50122024B1A60024B5B6817
:10513000984708BD1C7103408C07FF1F08B501226A
:10514000024B1A60024B9B68984708BD2C710340C4
:105150008C07FF1F08B50122024B1A60024BDB6867
:10516000984708BD3C7103408C07FF1F00B583B012
:10517000054B1B88ADF8043003685B6801A9022267
:10518000984703B05DF804FBA8D00000F0B58BB0E1
:10519000164622B903681B68C9B298472FE0012A56
:1051A00008BF0A2621B930228DF82520212417E0D6
:1051B00021243746B1FBF6F506FB1515EDB2224664
:1051C000092D94BF30353735EDB20DF1280E7244FC
:1051D00002F8245CB1FBF7F111B1013CE4B2E9E75C
:1051E00033B1013CE4B20AAB23442D2203F8242C52
:1051F00003685B6801A92144C4F1220298470BB0FF
:10520000F0BD00BF08B50029BABF49422D230023D5
:105210000A22FFF7BBFF08BD2DE9F04F2DED028BF1
:1052200085B08146B0EE408AF0EE608A884603F091
:10523000AFF840B9D9F800305B6848466E490322A0
:1052400098478246C7E0B0EE480AF0EE680A03F0DD
:105250009FF8012808D1D9F800305B6848466749B3
:10526000032298478246B6E051EC180B4FF060429B
:10527000634B06F02BFB40B1D9F800305B68484621
:105280006049032298478246A5E051EC180B4FF085
:1052900060425D4B06F0FCFA40B1D9F800305B6823
:1052A0004846584903229847824694E051EC180B2F
:1052B0000022002306F0ECFA50B118EE102A18EE86
:1052C000901A01F1004343EC182B4FF0010A01E062
:1052D0004FF0000AB8F1000F6ED04FF0000B002421
:1052E0004A4D41A7D7E900672046294632463B464A
:1052F00006F05CF804460D460BF1010B5FFA8BF3E8
:105300009845F1D82AE03E462046294653EC182B12
:1053100006F04CF804460D4606F00AFBC0B2771CB6
:10532000FFB204AB1E4400F1300306F8103C05F058
:10533000D7FF02460B462046294605F083FE044669
:105340000D464745DFD101E04FF00108D9F80030A4
:105350005B6848466946424698473CE051EC180B6A
:1053600022462B4605F070FE04460D4606F0E0FA94
:10537000064605F0A5FF02460B462046294605F0E5
:1053800061FE04460D46484631460A225346FFF761
:10539000FDFE82462E238DF80030B8F10F0F34BF8A
:1053A00043460F23002BCFD003F101085FFA88F8A2
:1053B00001269FED0F8BA7E751EC180B0022134B32
:1053C00005F042FE06F0B4FA014648460A2253466A
:1053D000FFF7DCFE8246504605B0BDEC028BBDE80F
:1053E000F08F00BFAFF30080000000A09999B93F93
:1053F0000000000000002440ACD00000B0D000004D
:10540000FFFFEF41B4D00000FFFFEFC10000E03F1D
:1054100008B5FBF781FDFCF791FC00F039F8FAE7DD
:1054200008B506F033FB08BD08B506F037FB08BD2C
:1054300008B5FFF7C9FB08BD08B5FFF779FB08BD44
:1054400008B5FFF7A1FB08BD08B5FFF773FC08BD61
:1054500008B5FFF7C7FB08BD08B50846FFF75EFCB7
:1054600008BD00BF08B508461146FFF7D7FB08BDC9
:10547000704700BF044B00221A714FF47A71996093
:105480001A73024A1A6070473CF3FF1FC0D0000035
:1054900008B5164B1B7843BB0122144B1A70FFF75B
:1054A00093FB08B1FFF7E4FF00F0F2FA08B102F055
:1054B000AFFB00F0AFFE08B102F04CFC01F082F946
:1054C00008B1FFF7B1FD01F093FC08B102F0E4FC74
:1054D00001F036FF08B102F081FD02F061FA08B177
:1054E00002F012FE0022014B1A7008BD4CF3FF1FA0
:1054F00030B40023B0FBF2F402FB14041D46092C67
:1055000094BF30343734E4B2CC54B0FBF2F008B17D
:105510000133EFE70D4400226A70934207DD885C97
:10552000CC5C8C54C8540132013B9A42F7DB0846EC
:1055300030BC70472B4B1A6842F480621A6000231B
:10554000294A1370294A1370294A1370294A137083
:10555000294A1370294B1B78152B07D01B2B0AD017
:105560006BB940F21332264B1A6008E040F2133256
:10557000244B1A6003E040F21332234B1A60234B92
:105580001B78052B08D01A2B0BD0012B0DD14FF413
:1055900051721F4B1A6008E04FF451721D4B1A6094
:1055A00003E04FF451721C4B1A60C0F344321B4BA2
:1055B0001A70C0F347125A7000F01F00987204224C
:1055C0009A700221D9745A7588221A743C22DA70B2
:1055D0004022134B1A704FF00042A3F21F331A609F
:1055E000704700BF34800440DCF3FF1F55F3FF1FFA
:1055F000E4F3FF1FDDF3FF1F54F3FF1F98F3FF1FBA
:1056000040A0044018C004403C9004409C07FF1F89
:1056100044A004401CC004403890044000A0064050
:105620001FE400E01B4B9B7803F0EC0300F0030247
:10563000134310F0040F18BF43F01003154A937082
:1056400000F00F03042B04D11346927942F040027C
:105650009A71104B5A7902F0EF0210F0100F18BF38
:1056600042F010020B4B5A719B7903F0EF0310F0DC
:10567000200F18BF43F01003064A937110F4807F87
:1056800007D013465278D2B2197841F02001197030
:105690005A70704700A0064010B5144B1B6813F4F5
:1056A000806F21D0124B1B7813F0FF0F06D0104CE7
:1056B000FFF7EEFE237813F0FF0FF9D14FF0004211
:1056C0000C4B1A6000230C4AD37040F203120B49B2
:1056D0000A6004310A600A4A13700A4A13700A4BBE
:1056E0001B680BB101221A7010BD00BF348004404A
:1056F00054F3FF1F80E100E000A0064040A00440FA
:10570000DCF3FF1F55F3FF1F50F3FF1F10B50446D6
:10571000094A137813F0FF0FFBD120460121FEF751
:1057200051FA20460021FEF729FA044B53F83420A1
:10573000034B1A6010BD00BF54F3FF1F48CE00009A
:10574000E0F3FF1F10B40C4609B140F080001D4B80
:105750001B78984233D01C4A126812F4806F2CD008
:1057600003F07F03052B07D01A2B09D0012B0AD198
:105770000022164B1A6006E00022154B1A6002E068
:105780000022144B1A60002C0CBF4422602200F04F
:105790007F03052B08D01A2B0BD0012B0DD142F41F
:1057A00040720A4B1A6008E042F44072084B1A60DB
:1057B00003E042F44072074B1A60024B18705DF828
:1057C000044B70479C07FF1F3480044044A00440F2
:1057D0001CC0044038900440174B1B78984229D0D5
:1057E000164A126812F4806F22D0152B06D01B2B9C
:1057F00008D053B90022124B1A6006E00022114B68
:105800001A6002E00022104B1A60152807D01B28EE
:105810000AD068B940F21332094B1A6008E040F22E
:105820001332084B1A6003E040F21332064B1A6041
:10583000014B1870704700BF98F3FF1F348004407D
:1058400040A0044018C004403C90044010B50D4BEB
:105850001B6813F4806F12D03F280CD80A4C0B4BF6
:1058600053F8303023600121FEF7ACF923680022A1
:105870001A70012010BD0020034B186010BD0020DD
:1058800010BD00BF3480044050F3FF1F48CE00001D
:10589000114B1B6813F4806F1BD0122804D140F207
:1058A00002320E4B1A600DE0142804D140F202328D
:1058B0000B4B1A6006E00B4B5A7B02F0FE025A7348
:1058C00000207047074B5A7B42F001025A730120B7
:1058D00070470020704700BF348004400CA0044093
:1058E00014C0044000A006402DE9F04107461F4BBC
:1058F0001B6813F4806F37D01D4B1B680BB101225E
:105900001A701C4B1C780134402C28BF00241A4DFF
:105910001A4EDFF86C8017E0FEF7B8F840280FDC6D
:10592000337913F0800F0FD02B780133402B28BF31
:10593000002318F80320D2B2F271DBB22B7003E01F
:10594000FF2801DDFFF7A4FD2B78DBB29C42E3D0FA
:10595000FFB20B4B1F5501220A4B1A70E4B2054BE4
:105960001C70BC22054BDA70BDE8F0813480044025
:10597000E0F3FF1FE4F3FF1FDDF3FF1F00A006406D
:1059800058F3FF1F54F3FF1F2DE9F84F0746284B2C
:105990001B6813F4806F49D0264B1B680BB10122A2
:1059A0001A7007EB010B5F453DD2DFF89890224E4D
:1059B000DFF88C80DFF890A099F800400134402C8B
:1059C00028BF00243578EDB2A54220D1BC2388F849
:1059D0000330FEF75BF8402811DC98F8043013F030
:1059E000800F10D033780133402B28BF00231AF8E2
:1059F0000320D2B288F80720DBB2337003E0FF281F
:105A000001DDFFF745FD3378DBB29D42E1D017F8A9
:105A1000013B0AF804300122084B1A70E4B289F8FD
:105A200000405F45C8D1BC22054BDA70BDE8F88F55
:105A300034800440E0F3FF1FDDF3FF1F54F3FF1F2A
:105A400000A00640E4F3FF1F58F3FF1F10B5064BFC
:105A50001B7813F0FF0F06D0034CFFF719FD2378D6
:105A600013F0FF0FF9D110BD54F3FF1F064B1B7845
:105A7000DBB2064A1278D2B293422CBF3F3202F117
:105A8000FF32D01A704700BFE4F3FF1FDDF3FF1FA2
:105A9000054B1878C0B2054B1B78DBB2984238BF73
:105AA0004030C01A704700BFDCF3FF1F55F3FF1FE3
:105AB00010B4184B1A78D2B2174B1B78DBB29A424B
:105AC00018D001333F2B18D81449C85CC0B2DCB2DF
:105AD00011490C7012490968C9B19A4203D300E018
